{
  "_format": "hh-sol-artifact-1",
  "contractName": "Authenticity",
  "sourceName": "contracts/Authenticity.sol",
  "abi": [
    {
      "inputs": [],
      "stateMutability": "nonpayable",
      "type": "constructor"
    },
    {
      "inputs": [],
      "name": "ArrayLengthMismatch",
      "type": "error"
    },
    {
      "inputs": [
        {
          "internalType": "address[]",
          "name": "address_",
          "type": "address[]"
        },
        {
          "internalType": "bytes32[]",
          "name": "hash_",
          "type": "bytes32[]"
        }
      ],
      "name": "readHash",
      "outputs": [
        {
          "internalType": "bool[]",
          "name": "",
          "type": "bool[]"
        }
      ],
      "stateMutability": "view",
      "type": "function"
    },
    {
      "inputs": [
        {
          "internalType": "bytes32[]",
          "name": "hash_",
          "type": "bytes32[]"
        }
      ],
      "name": "writeHash",
      "outputs": [],
      "stateMutability": "nonpayable",
      "type": "function"
    }
  ],
  "bytecode": "0x608060405234801561001057600080fd5b50610498806100206000396000f3fe608060405234801561001057600080fd5b50600436106100365760003560e01c806383b20ec01461003b5780638e8ef17314610064575b600080fd5b61004e61004936600461026f565b610079565b60405161005b91906102db565b60405180910390f35b610077610072366004610337565b6101ac565b005b606083821461009b5760405163512509d360e11b815260040160405180910390fd5b60008267ffffffffffffffff8111156100b6576100b6610321565b6040519080825280602002602001820160405280156100df578160200160208202803683370190505b50905060005b838110156101a257600080888884818110610102576101026103f5565b9050602002016020810190610117919061040b565b6001600160a01b03166001600160a01b03168152602001908152602001600020600086868481811061014b5761014b6103f5565b90506020020135815260200190815260200160002060009054906101000a900460ff16828281518110610180576101806103f5565b911515602092830291909101909101528061019a8161043b565b9150506100e5565b5095945050505050565b60005b815181101561021f573360009081526020819052604081208351600192908590859081106101df576101df6103f5565b6020026020010151815260200190815260200160002060006101000a81548160ff02191690831515021790555080806102179061043b565b9150506101af565b5050565b60008083601f84011261023557600080fd5b50813567ffffffffffffffff81111561024d57600080fd5b6020830191508360208260051b850101111561026857600080fd5b9250929050565b6000806000806040858703121561028557600080fd5b843567ffffffffffffffff8082111561029d57600080fd5b6102a988838901610223565b909650945060208701359150808211156102c257600080fd5b506102cf87828801610223565b95989497509550505050565b6020808252825182820181905260009190848201906040850190845b818110156103155783511515835292840192918401916001016102f7565b50909695505050505050565b634e487b7160e01b600052604160045260246000fd5b6000602080838503121561034a57600080fd5b823567ffffffffffffffff8082111561036257600080fd5b818501915085601f83011261037657600080fd5b81358181111561038857610388610321565b8060051b604051601f19603f830116810181811085821117156103ad576103ad610321565b6040529182528482019250838101850191888311156103cb57600080fd5b938501935b828510156103e9578435845293850193928501926103d0565b98975050505050505050565b634e487b7160e01b600052603260045260246000fd5b60006020828403121561041d57600080fd5b81356001600160a01b038116811461043457600080fd5b9392505050565b60006001820161045b57634e487b7160e01b600052601160045260246000fd5b506001019056fea264697066735822122010d6e5502e472525c203f42db182fd797f6d9bd5bc9f274b73b7ccf3ec2ff7ea64736f6c634300080e0033",
  "linkReferences": {},
  "deployedLinkReferences": {}
}